{
	"contracts/tugas.sol": {
		"DataStore": {
			"abi": [
				{
					"inputs": [
						{
							"internalType": "string",
							"name": "nama",
							"type": "string"
						},
						{
							"internalType": "string",
							"name": "alamat",
							"type": "string"
						},
						{
							"internalType": "uint256",
							"name": "tanggal_lahir",
							"type": "uint256"
						},
						{
							"internalType": "string",
							"name": "jenis_kelamin",
							"type": "string"
						}
					],
					"name": "storeData",
					"outputs": [],
					"stateMutability": "nonpayable",
					"type": "function"
				}
			],
			"devdoc": {
				"kind": "dev",
				"methods": {},
				"version": 1
			},
			"evm": {
				"assembly": "    /* \"contracts/tugas.sol\":89:484  contract DataStore {... */\n  mstore(0x40, 0x80)\n  callvalue\n  dup1\n  iszero\n  tag_1\n  jumpi\n  revert(0x00, 0x00)\ntag_1:\n  pop\n  dataSize(sub_0)\n  dup1\n  dataOffset(sub_0)\n  0x00\n  codecopy\n  0x00\n  return\nstop\n\nsub_0: assembly {\n        /* \"contracts/tugas.sol\":89:484  contract DataStore {... */\n      mstore(0x40, 0x80)\n      callvalue\n      dup1\n      iszero\n      tag_1\n      jumpi\n      revert(0x00, 0x00)\n    tag_1:\n      pop\n      jumpi(tag_2, lt(calldatasize, 0x04))\n      shr(0xe0, calldataload(0x00))\n      dup1\n      0x3e981f4b\n      eq\n      tag_3\n      jumpi\n    tag_2:\n      revert(0x00, 0x00)\n        /* \"contracts/tugas.sol\":278:481  function storeData (string memory nama, string memory alamat, uint256 tanggal_lahir, string memory jenis_kelamin) public {... */\n    tag_3:\n      tag_4\n      0x04\n      dup1\n      calldatasize\n      sub\n      dup2\n      add\n      swap1\n      tag_5\n      swap2\n      swap1\n      tag_6\n      jump\t// in\n    tag_5:\n      tag_7\n      jump\t// in\n    tag_4:\n      stop\n    tag_7:\n        /* \"contracts/tugas.sol\":410:416  person */\n      0x00\n        /* \"contracts/tugas.sol\":422:472  Person(nama, alamat, tanggal_lahir, jenis_kelamin) */\n      mload(0x40)\n      dup1\n      0x80\n      add\n      0x40\n      mstore\n      dup1\n        /* \"contracts/tugas.sol\":429:433  nama */\n      dup7\n        /* \"contracts/tugas.sol\":422:472  Person(nama, alamat, tanggal_lahir, jenis_kelamin) */\n      dup2\n      mstore\n      0x20\n      add\n        /* \"contracts/tugas.sol\":435:441  alamat */\n      dup6\n        /* \"contracts/tugas.sol\":422:472  Person(nama, alamat, tanggal_lahir, jenis_kelamin) */\n      dup2\n      mstore\n      0x20\n      add\n        /* \"contracts/tugas.sol\":443:456  tanggal_lahir */\n      dup5\n        /* \"contracts/tugas.sol\":422:472  Person(nama, alamat, tanggal_lahir, jenis_kelamin) */\n      dup2\n      mstore\n      0x20\n      add\n        /* \"contracts/tugas.sol\":458:471  jenis_kelamin */\n      dup4\n        /* \"contracts/tugas.sol\":422:472  Person(nama, alamat, tanggal_lahir, jenis_kelamin) */\n      dup2\n      mstore\n      pop\n        /* \"contracts/tugas.sol\":410:473  person.push(Person(nama, alamat, tanggal_lahir, jenis_kelamin)) */\n      swap1\n      dup1\n      0x01\n      dup2\n      sload\n      add\n      dup1\n      dup3\n      sstore\n      dup1\n      swap2\n      pop\n      pop\n      0x01\n      swap1\n      sub\n      swap1\n      0x00\n      mstore\n      keccak256(0x00, 0x20)\n      swap1\n      0x04\n      mul\n      add\n      0x00\n      swap1\n      swap2\n      swap1\n      swap2\n      swap1\n      swap2\n      pop\n      0x00\n      dup3\n      add\n      mload\n      dup2\n      0x00\n      add\n      swap1\n      dup2\n      tag_10\n      swap2\n      swap1\n      tag_11\n      jump\t// in\n    tag_10:\n      pop\n      0x20\n      dup3\n      add\n      mload\n      dup2\n      0x01\n      add\n      swap1\n      dup2\n      tag_12\n      swap2\n      swap1\n      tag_11\n      jump\t// in\n    tag_12:\n      pop\n      0x40\n      dup3\n      add\n      mload\n      dup2\n      0x02\n      add\n      sstore\n      0x60\n      dup3\n      add\n      mload\n      dup2\n      0x03\n      add\n      swap1\n      dup2\n      tag_13\n      swap2\n      swap1\n      tag_11\n      jump\t// in\n    tag_13:\n      pop\n      pop\n      pop\n        /* \"contracts/tugas.sol\":278:481  function storeData (string memory nama, string memory alamat, uint256 tanggal_lahir, string memory jenis_kelamin) public {... */\n      pop\n      pop\n      pop\n      pop\n      jump\t// out\n        /* \"#utility.yul\":7:82   */\n    tag_14:\n        /* \"#utility.yul\":40:46   */\n      0x00\n        /* \"#utility.yul\":73:75   */\n      0x40\n        /* \"#utility.yul\":67:76   */\n      mload\n        /* \"#utility.yul\":57:76   */\n      swap1\n      pop\n        /* \"#utility.yul\":7:82   */\n      swap1\n      jump\t// out\n        /* \"#utility.yul\":88:205   */\n    tag_15:\n        /* \"#utility.yul\":197:198   */\n      0x00\n        /* \"#utility.yul\":194:195   */\n      0x00\n        /* \"#utility.yul\":187:199   */\n      revert\n        /* \"#utility.yul\":211:328   */\n    tag_16:\n        /* \"#utility.yul\":320:321   */\n      0x00\n        /* \"#utility.yul\":317:318   */\n      0x00\n        /* \"#utility.yul\":310:322   */\n      revert\n        /* \"#utility.yul\":334:451   */\n    tag_17:\n        /* \"#utility.yul\":443:444   */\n      0x00\n        /* \"#utility.yul\":440:441   */\n      0x00\n        /* \"#utility.yul\":433:445   */\n      revert\n        /* \"#utility.yul\":457:574   */\n    tag_18:\n        /* \"#utility.yul\":566:567   */\n      0x00\n        /* \"#utility.yul\":563:564   */\n      0x00\n        /* \"#utility.yul\":556:568   */\n      revert\n        /* \"#utility.yul\":580:682   */\n    tag_19:\n        /* \"#utility.yul\":621:627   */\n      0x00\n        /* \"#utility.yul\":672:674   */\n      0x1f\n        /* \"#utility.yul\":668:675   */\n      not\n        /* \"#utility.yul\":663:665   */\n      0x1f\n        /* \"#utility.yul\":656:661   */\n      dup4\n        /* \"#utility.yul\":652:666   */\n      add\n        /* \"#utility.yul\":648:676   */\n      and\n        /* \"#utility.yul\":638:676   */\n      swap1\n      pop\n        /* \"#utility.yul\":580:682   */\n      swap2\n      swap1\n      pop\n      jump\t// out\n        /* \"#utility.yul\":688:868   */\n    tag_20:\n        /* \"#utility.yul\":736:813   */\n      0x4e487b7100000000000000000000000000000000000000000000000000000000\n        /* \"#utility.yul\":733:734   */\n      0x00\n        /* \"#utility.yul\":726:814   */\n      mstore\n        /* \"#utility.yul\":833:837   */\n      0x41\n        /* \"#utility.yul\":830:831   */\n      0x04\n        /* \"#utility.yul\":823:838   */\n      mstore\n        /* \"#utility.yul\":857:861   */\n      0x24\n        /* \"#utility.yul\":854:855   */\n      0x00\n        /* \"#utility.yul\":847:862   */\n      revert\n        /* \"#utility.yul\":874:1155   */\n    tag_21:\n        /* \"#utility.yul\":957:984   */\n      tag_57\n        /* \"#utility.yul\":979:983   */\n      dup3\n        /* \"#utility.yul\":957:984   */\n      tag_19\n      jump\t// in\n    tag_57:\n        /* \"#utility.yul\":949:955   */\n      dup2\n        /* \"#utility.yul\":945:985   */\n      add\n        /* \"#utility.yul\":1087:1093   */\n      dup2\n        /* \"#utility.yul\":1075:1085   */\n      dup2\n        /* \"#utility.yul\":1072:1094   */\n      lt\n        /* \"#utility.yul\":1051:1069   */\n      0xffffffffffffffff\n        /* \"#utility.yul\":1039:1049   */\n      dup3\n        /* \"#utility.yul\":1036:1070   */\n      gt\n        /* \"#utility.yul\":1033:1095   */\n      or\n        /* \"#utility.yul\":1030:1118   */\n      iszero\n      tag_58\n      jumpi\n        /* \"#utility.yul\":1098:1116   */\n      tag_59\n      tag_20\n      jump\t// in\n    tag_59:\n        /* \"#utility.yul\":1030:1118   */\n    tag_58:\n        /* \"#utility.yul\":1138:1148   */\n      dup1\n        /* \"#utility.yul\":1134:1136   */\n      0x40\n        /* \"#utility.yul\":1127:1149   */\n      mstore\n        /* \"#utility.yul\":917:1155   */\n      pop\n        /* \"#utility.yul\":874:1155   */\n      pop\n      pop\n      jump\t// out\n        /* \"#utility.yul\":1161:1290   */\n    tag_22:\n        /* \"#utility.yul\":1195:1201   */\n      0x00\n        /* \"#utility.yul\":1222:1242   */\n      tag_61\n      tag_14\n      jump\t// in\n    tag_61:\n        /* \"#utility.yul\":1212:1242   */\n      swap1\n      pop\n        /* \"#utility.yul\":1251:1284   */\n      tag_62\n        /* \"#utility.yul\":1279:1283   */\n      dup3\n        /* \"#utility.yul\":1271:1277   */\n      dup3\n        /* \"#utility.yul\":1251:1284   */\n      tag_21\n      jump\t// in\n    tag_62:\n        /* \"#utility.yul\":1161:1290   */\n      swap2\n      swap1\n      pop\n      jump\t// out\n        /* \"#utility.yul\":1296:1604   */\n    tag_23:\n        /* \"#utility.yul\":1358:1362   */\n      0x00\n        /* \"#utility.yul\":1448:1466   */\n      0xffffffffffffffff\n        /* \"#utility.yul\":1440:1446   */\n      dup3\n        /* \"#utility.yul\":1437:1467   */\n      gt\n        /* \"#utility.yul\":1434:1490   */\n      iszero\n      tag_64\n      jumpi\n        /* \"#utility.yul\":1470:1488   */\n      tag_65\n      tag_20\n      jump\t// in\n    tag_65:\n        /* \"#utility.yul\":1434:1490   */\n    tag_64:\n        /* \"#utility.yul\":1508:1537   */\n      tag_66\n        /* \"#utility.yul\":1530:1536   */\n      dup3\n        /* \"#utility.yul\":1508:1537   */\n      tag_19\n      jump\t// in\n    tag_66:\n        /* \"#utility.yul\":1500:1537   */\n      swap1\n      pop\n        /* \"#utility.yul\":1592:1596   */\n      0x20\n        /* \"#utility.yul\":1586:1590   */\n      dup2\n        /* \"#utility.yul\":1582:1597   */\n      add\n        /* \"#utility.yul\":1574:1597   */\n      swap1\n      pop\n        /* \"#utility.yul\":1296:1604   */\n      swap2\n      swap1\n      pop\n      jump\t// out\n        /* \"#utility.yul\":1610:1758   */\n    tag_24:\n        /* \"#utility.yul\":1708:1714   */\n      dup3\n        /* \"#utility.yul\":1703:1706   */\n      dup2\n        /* \"#utility.yul\":1698:1701   */\n      dup4\n        /* \"#utility.yul\":1685:1715   */\n      calldatacopy\n        /* \"#utility.yul\":1749:1750   */\n      0x00\n        /* \"#utility.yul\":1740:1746   */\n      dup4\n        /* \"#utility.yul\":1735:1738   */\n      dup4\n        /* \"#utility.yul\":1731:1747   */\n      add\n        /* \"#utility.yul\":1724:1751   */\n      mstore\n        /* \"#utility.yul\":1610:1758   */\n      pop\n      pop\n      pop\n      jump\t// out\n        /* \"#utility.yul\":1764:2189   */\n    tag_25:\n        /* \"#utility.yul\":1842:1847   */\n      0x00\n        /* \"#utility.yul\":1867:1933   */\n      tag_69\n        /* \"#utility.yul\":1883:1932   */\n      tag_70\n        /* \"#utility.yul\":1925:1931   */\n      dup5\n        /* \"#utility.yul\":1883:1932   */\n      tag_23\n      jump\t// in\n    tag_70:\n        /* \"#utility.yul\":1867:1933   */\n      tag_22\n      jump\t// in\n    tag_69:\n        /* \"#utility.yul\":1858:1933   */\n      swap1\n      pop\n        /* \"#utility.yul\":1956:1962   */\n      dup3\n        /* \"#utility.yul\":1949:1954   */\n      dup2\n        /* \"#utility.yul\":1942:1963   */\n      mstore\n        /* \"#utility.yul\":1994:1998   */\n      0x20\n        /* \"#utility.yul\":1987:1992   */\n      dup2\n        /* \"#utility.yul\":1983:1999   */\n      add\n        /* \"#utility.yul\":2032:2035   */\n      dup5\n        /* \"#utility.yul\":2023:2029   */\n      dup5\n        /* \"#utility.yul\":2018:2021   */\n      dup5\n        /* \"#utility.yul\":2014:2030   */\n      add\n        /* \"#utility.yul\":2011:2036   */\n      gt\n        /* \"#utility.yul\":2008:2120   */\n      iszero\n      tag_71\n      jumpi\n        /* \"#utility.yul\":2039:2118   */\n      tag_72\n      tag_18\n      jump\t// in\n    tag_72:\n        /* \"#utility.yul\":2008:2120   */\n    tag_71:\n        /* \"#utility.yul\":2129:2183   */\n      tag_73\n        /* \"#utility.yul\":2176:2182   */\n      dup5\n        /* \"#utility.yul\":2171:2174   */\n      dup3\n        /* \"#utility.yul\":2166:2169   */\n      dup6\n        /* \"#utility.yul\":2129:2183   */\n      tag_24\n      jump\t// in\n    tag_73:\n        /* \"#utility.yul\":1848:2189   */\n      pop\n        /* \"#utility.yul\":1764:2189   */\n      swap4\n      swap3\n      pop\n      pop\n      pop\n      jump\t// out\n        /* \"#utility.yul\":2209:2549   */\n    tag_26:\n        /* \"#utility.yul\":2265:2270   */\n      0x00\n        /* \"#utility.yul\":2314:2317   */\n      dup3\n        /* \"#utility.yul\":2307:2311   */\n      0x1f\n        /* \"#utility.yul\":2299:2305   */\n      dup4\n        /* \"#utility.yul\":2295:2312   */\n      add\n        /* \"#utility.yul\":2291:2318   */\n      slt\n        /* \"#utility.yul\":2281:2403   */\n      tag_75\n      jumpi\n        /* \"#utility.yul\":2322:2401   */\n      tag_76\n      tag_17\n      jump\t// in\n    tag_76:\n        /* \"#utility.yul\":2281:2403   */\n    tag_75:\n        /* \"#utility.yul\":2439:2445   */\n      dup2\n        /* \"#utility.yul\":2426:2446   */\n      calldataload\n        /* \"#utility.yul\":2464:2543   */\n      tag_77\n        /* \"#utility.yul\":2539:2542   */\n      dup5\n        /* \"#utility.yul\":2531:2537   */\n      dup3\n        /* \"#utility.yul\":2524:2528   */\n      0x20\n        /* \"#utility.yul\":2516:2522   */\n      dup7\n        /* \"#utility.yul\":2512:2529   */\n      add\n        /* \"#utility.yul\":2464:2543   */\n      tag_25\n      jump\t// in\n    tag_77:\n        /* \"#utility.yul\":2455:2543   */\n      swap2\n      pop\n        /* \"#utility.yul\":2271:2549   */\n      pop\n        /* \"#utility.yul\":2209:2549   */\n      swap3\n      swap2\n      pop\n      pop\n      jump\t// out\n        /* \"#utility.yul\":2555:2632   */\n    tag_27:\n        /* \"#utility.yul\":2592:2599   */\n      0x00\n        /* \"#utility.yul\":2621:2626   */\n      dup2\n        /* \"#utility.yul\":2610:2626   */\n      swap1\n      pop\n        /* \"#utility.yul\":2555:2632   */\n      swap2\n      swap1\n      pop\n      jump\t// out\n        /* \"#utility.yul\":2638:2760   */\n    tag_28:\n        /* \"#utility.yul\":2711:2735   */\n      tag_80\n        /* \"#utility.yul\":2729:2734   */\n      dup2\n        /* \"#utility.yul\":2711:2735   */\n      tag_27\n      jump\t// in\n    tag_80:\n        /* \"#utility.yul\":2704:2709   */\n      dup2\n        /* \"#utility.yul\":2701:2736   */\n      eq\n        /* \"#utility.yul\":2691:2754   */\n      tag_81\n      jumpi\n        /* \"#utility.yul\":2750:2751   */\n      0x00\n        /* \"#utility.yul\":2747:2748   */\n      0x00\n        /* \"#utility.yul\":2740:2752   */\n      revert\n        /* \"#utility.yul\":2691:2754   */\n    tag_81:\n        /* \"#utility.yul\":2638:2760   */\n      pop\n      jump\t// out\n        /* \"#utility.yul\":2766:2905   */\n    tag_29:\n        /* \"#utility.yul\":2812:2817   */\n      0x00\n        /* \"#utility.yul\":2850:2856   */\n      dup2\n        /* \"#utility.yul\":2837:2857   */\n      calldataload\n        /* \"#utility.yul\":2828:2857   */\n      swap1\n      pop\n        /* \"#utility.yul\":2866:2899   */\n      tag_83\n        /* \"#utility.yul\":2893:2898   */\n      dup2\n        /* \"#utility.yul\":2866:2899   */\n      tag_28\n      jump\t// in\n    tag_83:\n        /* \"#utility.yul\":2766:2905   */\n      swap3\n      swap2\n      pop\n      pop\n      jump\t// out\n        /* \"#utility.yul\":2911:4216   */\n    tag_6:\n        /* \"#utility.yul\":3027:3033   */\n      0x00\n        /* \"#utility.yul\":3035:3041   */\n      0x00\n        /* \"#utility.yul\":3043:3049   */\n      0x00\n        /* \"#utility.yul\":3051:3057   */\n      0x00\n        /* \"#utility.yul\":3100:3103   */\n      0x80\n        /* \"#utility.yul\":3088:3097   */\n      dup6\n        /* \"#utility.yul\":3079:3086   */\n      dup8\n        /* \"#utility.yul\":3075:3098   */\n      sub\n        /* \"#utility.yul\":3071:3104   */\n      slt\n        /* \"#utility.yul\":3068:3188   */\n      iszero\n      tag_85\n      jumpi\n        /* \"#utility.yul\":3107:3186   */\n      tag_86\n      tag_15\n      jump\t// in\n    tag_86:\n        /* \"#utility.yul\":3068:3188   */\n    tag_85:\n        /* \"#utility.yul\":3255:3256   */\n      0x00\n        /* \"#utility.yul\":3244:3253   */\n      dup6\n        /* \"#utility.yul\":3240:3257   */\n      add\n        /* \"#utility.yul\":3227:3258   */\n      calldataload\n        /* \"#utility.yul\":3285:3303   */\n      0xffffffffffffffff\n        /* \"#utility.yul\":3277:3283   */\n      dup2\n        /* \"#utility.yul\":3274:3304   */\n      gt\n        /* \"#utility.yul\":3271:3388   */\n      iszero\n      tag_87\n      jumpi\n        /* \"#utility.yul\":3307:3386   */\n      tag_88\n      tag_16\n      jump\t// in\n    tag_88:\n        /* \"#utility.yul\":3271:3388   */\n    tag_87:\n        /* \"#utility.yul\":3412:3475   */\n      tag_89\n        /* \"#utility.yul\":3467:3474   */\n      dup8\n        /* \"#utility.yul\":3458:3464   */\n      dup3\n        /* \"#utility.yul\":3447:3456   */\n      dup9\n        /* \"#utility.yul\":3443:3465   */\n      add\n        /* \"#utility.yul\":3412:3475   */\n      tag_26\n      jump\t// in\n    tag_89:\n        /* \"#utility.yul\":3402:3475   */\n      swap5\n      pop\n        /* \"#utility.yul\":3198:3485   */\n      pop\n        /* \"#utility.yul\":3552:3554   */\n      0x20\n        /* \"#utility.yul\":3541:3550   */\n      dup6\n        /* \"#utility.yul\":3537:3555   */\n      add\n        /* \"#utility.yul\":3524:3556   */\n      calldataload\n        /* \"#utility.yul\":3583:3601   */\n      0xffffffffffffffff\n        /* \"#utility.yul\":3575:3581   */\n      dup2\n        /* \"#utility.yul\":3572:3602   */\n      gt\n        /* \"#utility.yul\":3569:3686   */\n      iszero\n      tag_90\n      jumpi\n        /* \"#utility.yul\":3605:3684   */\n      tag_91\n      tag_16\n      jump\t// in\n    tag_91:\n        /* \"#utility.yul\":3569:3686   */\n    tag_90:\n        /* \"#utility.yul\":3710:3773   */\n      tag_92\n        /* \"#utility.yul\":3765:3772   */\n      dup8\n        /* \"#utility.yul\":3756:3762   */\n      dup3\n        /* \"#utility.yul\":3745:3754   */\n      dup9\n        /* \"#utility.yul\":3741:3763   */\n      add\n        /* \"#utility.yul\":3710:3773   */\n      tag_26\n      jump\t// in\n    tag_92:\n        /* \"#utility.yul\":3700:3773   */\n      swap4\n      pop\n        /* \"#utility.yul\":3495:3783   */\n      pop\n        /* \"#utility.yul\":3822:3824   */\n      0x40\n        /* \"#utility.yul\":3848:3901   */\n      tag_93\n        /* \"#utility.yul\":3893:3900   */\n      dup8\n        /* \"#utility.yul\":3884:3890   */\n      dup3\n        /* \"#utility.yul\":3873:3882   */\n      dup9\n        /* \"#utility.yul\":3869:3891   */\n      add\n        /* \"#utility.yul\":3848:3901   */\n      tag_29\n      jump\t// in\n    tag_93:\n        /* \"#utility.yul\":3838:3901   */\n      swap3\n      pop\n        /* \"#utility.yul\":3793:3911   */\n      pop\n        /* \"#utility.yul\":3978:3980   */\n      0x60\n        /* \"#utility.yul\":3967:3976   */\n      dup6\n        /* \"#utility.yul\":3963:3981   */\n      add\n        /* \"#utility.yul\":3950:3982   */\n      calldataload\n        /* \"#utility.yul\":4009:4027   */\n      0xffffffffffffffff\n        /* \"#utility.yul\":4001:4007   */\n      dup2\n        /* \"#utility.yul\":3998:4028   */\n      gt\n        /* \"#utility.yul\":3995:4112   */\n      iszero\n      tag_94\n      jumpi\n        /* \"#utility.yul\":4031:4110   */\n      tag_95\n      tag_16\n      jump\t// in\n    tag_95:\n        /* \"#utility.yul\":3995:4112   */\n    tag_94:\n        /* \"#utility.yul\":4136:4199   */\n      tag_96\n        /* \"#utility.yul\":4191:4198   */\n      dup8\n        /* \"#utility.yul\":4182:4188   */\n      dup3\n        /* \"#utility.yul\":4171:4180   */\n      dup9\n        /* \"#utility.yul\":4167:4189   */\n      add\n        /* \"#utility.yul\":4136:4199   */\n      tag_26\n      jump\t// in\n    tag_96:\n        /* \"#utility.yul\":4126:4199   */\n      swap2\n      pop\n        /* \"#utility.yul\":3921:4209   */\n      pop\n        /* \"#utility.yul\":2911:4216   */\n      swap3\n      swap6\n      swap2\n      swap5\n      pop\n      swap3\n      pop\n      jump\t// out\n        /* \"#utility.yul\":4222:4321   */\n    tag_30:\n        /* \"#utility.yul\":4274:4280   */\n      0x00\n        /* \"#utility.yul\":4308:4313   */\n      dup2\n        /* \"#utility.yul\":4302:4314   */\n      mload\n        /* \"#utility.yul\":4292:4314   */\n      swap1\n      pop\n        /* \"#utility.yul\":4222:4321   */\n      swap2\n      swap1\n      pop\n      jump\t// out\n        /* \"#utility.yul\":4327:4507   */\n    tag_31:\n        /* \"#utility.yul\":4375:4452   */\n      0x4e487b7100000000000000000000000000000000000000000000000000000000\n        /* \"#utility.yul\":4372:4373   */\n      0x00\n        /* \"#utility.yul\":4365:4453   */\n      mstore\n        /* \"#utility.yul\":4472:4476   */\n      0x22\n        /* \"#utility.yul\":4469:4470   */\n      0x04\n        /* \"#utility.yul\":4462:4477   */\n      mstore\n        /* \"#utility.yul\":4496:4500   */\n      0x24\n        /* \"#utility.yul\":4493:4494   */\n      0x00\n        /* \"#utility.yul\":4486:4501   */\n      revert\n        /* \"#utility.yul\":4513:4833   */\n    tag_32:\n        /* \"#utility.yul\":4557:4563   */\n      0x00\n        /* \"#utility.yul\":4594:4595   */\n      0x02\n        /* \"#utility.yul\":4588:4592   */\n      dup3\n        /* \"#utility.yul\":4584:4596   */\n      div\n        /* \"#utility.yul\":4574:4596   */\n      swap1\n      pop\n        /* \"#utility.yul\":4641:4642   */\n      0x01\n        /* \"#utility.yul\":4635:4639   */\n      dup3\n        /* \"#utility.yul\":4631:4643   */\n      and\n        /* \"#utility.yul\":4662:4680   */\n      dup1\n        /* \"#utility.yul\":4652:4733   */\n      tag_100\n      jumpi\n        /* \"#utility.yul\":4718:4722   */\n      0x7f\n        /* \"#utility.yul\":4710:4716   */\n      dup3\n        /* \"#utility.yul\":4706:4723   */\n      and\n        /* \"#utility.yul\":4696:4723   */\n      swap2\n      pop\n        /* \"#utility.yul\":4652:4733   */\n    tag_100:\n        /* \"#utility.yul\":4780:4782   */\n      0x20\n        /* \"#utility.yul\":4772:4778   */\n      dup3\n        /* \"#utility.yul\":4769:4783   */\n      lt\n        /* \"#utility.yul\":4749:4767   */\n      dup2\n        /* \"#utility.yul\":4746:4784   */\n      sub\n        /* \"#utility.yul\":4743:4827   */\n      tag_101\n      jumpi\n        /* \"#utility.yul\":4799:4817   */\n      tag_102\n      tag_31\n      jump\t// in\n    tag_102:\n        /* \"#utility.yul\":4743:4827   */\n    tag_101:\n        /* \"#utility.yul\":4564:4833   */\n      pop\n        /* \"#utility.yul\":4513:4833   */\n      swap2\n      swap1\n      pop\n      jump\t// out\n        /* \"#utility.yul\":4839:4980   */\n    tag_33:\n        /* \"#utility.yul\":4888:4892   */\n      0x00\n        /* \"#utility.yul\":4911:4914   */\n      dup2\n        /* \"#utility.yul\":4903:4914   */\n      swap1\n      pop\n        /* \"#utility.yul\":4934:4937   */\n      dup2\n        /* \"#utility.yul\":4931:4932   */\n      0x00\n        /* \"#utility.yul\":4924:4938   */\n      mstore\n        /* \"#utility.yul\":4968:4972   */\n      0x20\n        /* \"#utility.yul\":4965:4966   */\n      0x00\n        /* \"#utility.yul\":4955:4973   */\n      keccak256\n        /* \"#utility.yul\":4947:4973   */\n      swap1\n      pop\n        /* \"#utility.yul\":4839:4980   */\n      swap2\n      swap1\n      pop\n      jump\t// out\n        /* \"#utility.yul\":4986:5079   */\n    tag_34:\n        /* \"#utility.yul\":5023:5029   */\n      0x00\n        /* \"#utility.yul\":5070:5072   */\n      0x20\n        /* \"#utility.yul\":5065:5067   */\n      0x1f\n        /* \"#utility.yul\":5058:5063   */\n      dup4\n        /* \"#utility.yul\":5054:5068   */\n      add\n        /* \"#utility.yul\":5050:5073   */\n      div\n        /* \"#utility.yul\":5040:5073   */\n      swap1\n      pop\n        /* \"#utility.yul\":4986:5079   */\n      swap2\n      swap1\n      pop\n      jump\t// out\n        /* \"#utility.yul\":5085:5192   */\n    tag_35:\n        /* \"#utility.yul\":5129:5137   */\n      0x00\n        /* \"#utility.yul\":5179:5184   */\n      dup3\n        /* \"#utility.yul\":5173:5177   */\n      dup3\n        /* \"#utility.yul\":5169:5185   */\n      shl\n        /* \"#utility.yul\":5148:5185   */\n      swap1\n      pop\n        /* \"#utility.yul\":5085:5192   */\n      swap3\n      swap2\n      pop\n      pop\n      jump\t// out\n        /* \"#utility.yul\":5198:5591   */\n    tag_36:\n        /* \"#utility.yul\":5267:5273   */\n      0x00\n        /* \"#utility.yul\":5317:5318   */\n      0x08\n        /* \"#utility.yul\":5305:5315   */\n      dup4\n        /* \"#utility.yul\":5301:5319   */\n      mul\n        /* \"#utility.yul\":5340:5437   */\n      tag_107\n        /* \"#utility.yul\":5370:5436   */\n      0xffffffffffffffffffffffffffffffffffffffffffffffffffffffffffffffff\n        /* \"#utility.yul\":5359:5368   */\n      dup3\n        /* \"#utility.yul\":5340:5437   */\n      tag_35\n      jump\t// in\n    tag_107:\n        /* \"#utility.yul\":5458:5497   */\n      tag_108\n        /* \"#utility.yul\":5488:5496   */\n      dup7\n        /* \"#utility.yul\":5477:5486   */\n      dup4\n        /* \"#utility.yul\":5458:5497   */\n      tag_35\n      jump\t// in\n    tag_108:\n        /* \"#utility.yul\":5446:5497   */\n      swap6\n      pop\n        /* \"#utility.yul\":5530:5534   */\n      dup1\n        /* \"#utility.yul\":5526:5535   */\n      not\n        /* \"#utility.yul\":5519:5524   */\n      dup5\n        /* \"#utility.yul\":5515:5536   */\n      and\n        /* \"#utility.yul\":5506:5536   */\n      swap4\n      pop\n        /* \"#utility.yul\":5579:5583   */\n      dup1\n        /* \"#utility.yul\":5569:5577   */\n      dup7\n        /* \"#utility.yul\":5565:5584   */\n      and\n        /* \"#utility.yul\":5558:5563   */\n      dup5\n        /* \"#utility.yul\":5555:5585   */\n      or\n        /* \"#utility.yul\":5545:5585   */\n      swap3\n      pop\n        /* \"#utility.yul\":5274:5591   */\n      pop\n      pop\n        /* \"#utility.yul\":5198:5591   */\n      swap4\n      swap3\n      pop\n      pop\n      pop\n      jump\t// out\n        /* \"#utility.yul\":5597:5657   */\n    tag_37:\n        /* \"#utility.yul\":5625:5628   */\n      0x00\n        /* \"#utility.yul\":5646:5651   */\n      dup2\n        /* \"#utility.yul\":5639:5651   */\n      swap1\n      pop\n        /* \"#utility.yul\":5597:5657   */\n      swap2\n      swap1\n      pop\n      jump\t// out\n        /* \"#utility.yul\":5663:5805   */\n    tag_38:\n        /* \"#utility.yul\":5713:5722   */\n      0x00\n        /* \"#utility.yul\":5746:5799   */\n      tag_111\n        /* \"#utility.yul\":5764:5798   */\n      tag_112\n        /* \"#utility.yul\":5773:5797   */\n      tag_113\n        /* \"#utility.yul\":5791:5796   */\n      dup5\n        /* \"#utility.yul\":5773:5797   */\n      tag_27\n      jump\t// in\n    tag_113:\n        /* \"#utility.yul\":5764:5798   */\n      tag_37\n      jump\t// in\n    tag_112:\n        /* \"#utility.yul\":5746:5799   */\n      tag_27\n      jump\t// in\n    tag_111:\n        /* \"#utility.yul\":5733:5799   */\n      swap1\n      pop\n        /* \"#utility.yul\":5663:5805   */\n      swap2\n      swap1\n      pop\n      jump\t// out\n        /* \"#utility.yul\":5811:5886   */\n    tag_39:\n        /* \"#utility.yul\":5854:5857   */\n      0x00\n        /* \"#utility.yul\":5875:5880   */\n      dup2\n        /* \"#utility.yul\":5868:5880   */\n      swap1\n      pop\n        /* \"#utility.yul\":5811:5886   */\n      swap2\n      swap1\n      pop\n      jump\t// out\n        /* \"#utility.yul\":5892:6161   */\n    tag_40:\n        /* \"#utility.yul\":6002:6041   */\n      tag_116\n        /* \"#utility.yul\":6033:6040   */\n      dup4\n        /* \"#utility.yul\":6002:6041   */\n      tag_38\n      jump\t// in\n    tag_116:\n        /* \"#utility.yul\":6063:6154   */\n      tag_117\n        /* \"#utility.yul\":6112:6153   */\n      tag_118\n        /* \"#utility.yul\":6136:6152   */\n      dup3\n        /* \"#utility.yul\":6112:6153   */\n      tag_39\n      jump\t// in\n    tag_118:\n        /* \"#utility.yul\":6104:6110   */\n      dup5\n        /* \"#utility.yul\":6097:6101   */\n      dup5\n        /* \"#utility.yul\":6091:6102   */\n      sload\n        /* \"#utility.yul\":6063:6154   */\n      tag_36\n      jump\t// in\n    tag_117:\n        /* \"#utility.yul\":6057:6061   */\n      dup3\n        /* \"#utility.yul\":6050:6155   */\n      sstore\n        /* \"#utility.yul\":5968:6161   */\n      pop\n        /* \"#utility.yul\":5892:6161   */\n      pop\n      pop\n      pop\n      jump\t// out\n        /* \"#utility.yul\":6167:6240   */\n    tag_41:\n        /* \"#utility.yul\":6212:6215   */\n      0x00\n        /* \"#utility.yul\":6233:6234   */\n      0x00\n        /* \"#utility.yul\":6226:6234   */\n      swap1\n      pop\n        /* \"#utility.yul\":6167:6240   */\n      swap1\n      jump\t// out\n        /* \"#utility.yul\":6246:6435   */\n    tag_42:\n        /* \"#utility.yul\":6323:6355   */\n      tag_121\n      tag_41\n      jump\t// in\n    tag_121:\n        /* \"#utility.yul\":6364:6429   */\n      tag_122\n        /* \"#utility.yul\":6422:6428   */\n      dup2\n        /* \"#utility.yul\":6414:6420   */\n      dup5\n        /* \"#utility.yul\":6408:6412   */\n      dup5\n        /* \"#utility.yul\":6364:6429   */\n      tag_40\n      jump\t// in\n    tag_122:\n        /* \"#utility.yul\":6299:6435   */\n      pop\n        /* \"#utility.yul\":6246:6435   */\n      pop\n      pop\n      jump\t// out\n        /* \"#utility.yul\":6441:6627   */\n    tag_43:\n        /* \"#utility.yul\":6501:6621   */\n    tag_124:\n        /* \"#utility.yul\":6518:6521   */\n      dup2\n        /* \"#utility.yul\":6511:6516   */\n      dup2\n        /* \"#utility.yul\":6508:6522   */\n      lt\n        /* \"#utility.yul\":6501:6621   */\n      iszero\n      tag_126\n      jumpi\n        /* \"#utility.yul\":6572:6611   */\n      tag_127\n        /* \"#utility.yul\":6609:6610   */\n      0x00\n        /* \"#utility.yul\":6602:6607   */\n      dup3\n        /* \"#utility.yul\":6572:6611   */\n      tag_42\n      jump\t// in\n    tag_127:\n        /* \"#utility.yul\":6545:6546   */\n      0x01\n        /* \"#utility.yul\":6538:6543   */\n      dup2\n        /* \"#utility.yul\":6534:6547   */\n      add\n        /* \"#utility.yul\":6525:6547   */\n      swap1\n      pop\n        /* \"#utility.yul\":6501:6621   */\n      jump(tag_124)\n    tag_126:\n        /* \"#utility.yul\":6441:6627   */\n      pop\n      pop\n      jump\t// out\n        /* \"#utility.yul\":6633:7176   */\n    tag_44:\n        /* \"#utility.yul\":6734:6736   */\n      0x1f\n        /* \"#utility.yul\":6729:6732   */\n      dup3\n        /* \"#utility.yul\":6726:6737   */\n      gt\n        /* \"#utility.yul\":6723:7169   */\n      iszero\n      tag_129\n      jumpi\n        /* \"#utility.yul\":6768:6806   */\n      tag_130\n        /* \"#utility.yul\":6800:6805   */\n      dup2\n        /* \"#utility.yul\":6768:6806   */\n      tag_33\n      jump\t// in\n    tag_130:\n        /* \"#utility.yul\":6852:6881   */\n      tag_131\n        /* \"#utility.yul\":6870:6880   */\n      dup5\n        /* \"#utility.yul\":6852:6881   */\n      tag_34\n      jump\t// in\n    tag_131:\n        /* \"#utility.yul\":6842:6850   */\n      dup2\n        /* \"#utility.yul\":6838:6882   */\n      add\n        /* \"#utility.yul\":7035:7037   */\n      0x20\n        /* \"#utility.yul\":7023:7033   */\n      dup6\n        /* \"#utility.yul\":7020:7038   */\n      lt\n        /* \"#utility.yul\":7017:7066   */\n      iszero\n      tag_132\n      jumpi\n        /* \"#utility.yul\":7056:7064   */\n      dup2\n        /* \"#utility.yul\":7041:7064   */\n      swap1\n      pop\n        /* \"#utility.yul\":7017:7066   */\n    tag_132:\n        /* \"#utility.yul\":7079:7159   */\n      tag_133\n        /* \"#utility.yul\":7135:7157   */\n      tag_134\n        /* \"#utility.yul\":7153:7156   */\n      dup6\n        /* \"#utility.yul\":7135:7157   */\n      tag_34\n      jump\t// in\n    tag_134:\n        /* \"#utility.yul\":7125:7133   */\n      dup4\n        /* \"#utility.yul\":7121:7158   */\n      add\n        /* \"#utility.yul\":7108:7119   */\n      dup3\n        /* \"#utility.yul\":7079:7159   */\n      tag_43\n      jump\t// in\n    tag_133:\n        /* \"#utility.yul\":6738:7169   */\n      pop\n      pop\n        /* \"#utility.yul\":6723:7169   */\n    tag_129:\n        /* \"#utility.yul\":6633:7176   */\n      pop\n      pop\n      pop\n      jump\t// out\n        /* \"#utility.yul\":7182:7299   */\n    tag_45:\n        /* \"#utility.yul\":7236:7244   */\n      0x00\n        /* \"#utility.yul\":7286:7291   */\n      dup3\n        /* \"#utility.yul\":7280:7284   */\n      dup3\n        /* \"#utility.yul\":7276:7292   */\n      shr\n        /* \"#utility.yul\":7255:7292   */\n      swap1\n      pop\n        /* \"#utility.yul\":7182:7299   */\n      swap3\n      swap2\n      pop\n      pop\n      jump\t// out\n        /* \"#utility.yul\":7305:7474   */\n    tag_46:\n        /* \"#utility.yul\":7349:7355   */\n      0x00\n        /* \"#utility.yul\":7382:7433   */\n      tag_137\n        /* \"#utility.yul\":7430:7431   */\n      0x00\n        /* \"#utility.yul\":7426:7432   */\n      not\n        /* \"#utility.yul\":7418:7423   */\n      dup5\n        /* \"#utility.yul\":7415:7416   */\n      0x08\n        /* \"#utility.yul\":7411:7424   */\n      mul\n        /* \"#utility.yul\":7382:7433   */\n      tag_45\n      jump\t// in\n    tag_137:\n        /* \"#utility.yul\":7378:7434   */\n      not\n        /* \"#utility.yul\":7463:7467   */\n      dup1\n        /* \"#utility.yul\":7457:7461   */\n      dup4\n        /* \"#utility.yul\":7453:7468   */\n      and\n        /* \"#utility.yul\":7443:7468   */\n      swap2\n      pop\n        /* \"#utility.yul\":7356:7474   */\n      pop\n        /* \"#utility.yul\":7305:7474   */\n      swap3\n      swap2\n      pop\n      pop\n      jump\t// out\n        /* \"#utility.yul\":7479:7774   */\n    tag_47:\n        /* \"#utility.yul\":7555:7559   */\n      0x00\n        /* \"#utility.yul\":7701:7730   */\n      tag_139\n        /* \"#utility.yul\":7726:7729   */\n      dup4\n        /* \"#utility.yul\":7720:7724   */\n      dup4\n        /* \"#utility.yul\":7701:7730   */\n      tag_46\n      jump\t// in\n    tag_139:\n        /* \"#utility.yul\":7693:7730   */\n      swap2\n      pop\n        /* \"#utility.yul\":7763:7766   */\n      dup3\n        /* \"#utility.yul\":7760:7761   */\n      0x02\n        /* \"#utility.yul\":7756:7767   */\n      mul\n        /* \"#utility.yul\":7750:7754   */\n      dup3\n        /* \"#utility.yul\":7747:7768   */\n      or\n        /* \"#utility.yul\":7739:7768   */\n      swap1\n      pop\n        /* \"#utility.yul\":7479:7774   */\n      swap3\n      swap2\n      pop\n      pop\n      jump\t// out\n        /* \"#utility.yul\":7779:9174   */\n    tag_11:\n        /* \"#utility.yul\":7896:7933   */\n      tag_141\n        /* \"#utility.yul\":7929:7932   */\n      dup3\n        /* \"#utility.yul\":7896:7933   */\n      tag_30\n      jump\t// in\n    tag_141:\n        /* \"#utility.yul\":7998:8016   */\n      0xffffffffffffffff\n        /* \"#utility.yul\":7990:7996   */\n      dup2\n        /* \"#utility.yul\":7987:8017   */\n      gt\n        /* \"#utility.yul\":7984:8040   */\n      iszero\n      tag_142\n      jumpi\n        /* \"#utility.yul\":8020:8038   */\n      tag_143\n      tag_20\n      jump\t// in\n    tag_143:\n        /* \"#utility.yul\":7984:8040   */\n    tag_142:\n        /* \"#utility.yul\":8064:8102   */\n      tag_144\n        /* \"#utility.yul\":8096:8100   */\n      dup3\n        /* \"#utility.yul\":8090:8101   */\n      sload\n        /* \"#utility.yul\":8064:8102   */\n      tag_32\n      jump\t// in\n    tag_144:\n        /* \"#utility.yul\":8149:8216   */\n      tag_145\n        /* \"#utility.yul\":8209:8215   */\n      dup3\n        /* \"#utility.yul\":8201:8207   */\n      dup3\n        /* \"#utility.yul\":8195:8199   */\n      dup6\n        /* \"#utility.yul\":8149:8216   */\n      tag_44\n      jump\t// in\n    tag_145:\n        /* \"#utility.yul\":8243:8244   */\n      0x00\n        /* \"#utility.yul\":8267:8271   */\n      0x20\n        /* \"#utility.yul\":8254:8271   */\n      swap1\n      pop\n        /* \"#utility.yul\":8299:8301   */\n      0x1f\n        /* \"#utility.yul\":8291:8297   */\n      dup4\n        /* \"#utility.yul\":8288:8302   */\n      gt\n        /* \"#utility.yul\":8316:8317   */\n      0x01\n        /* \"#utility.yul\":8311:8929   */\n      dup2\n      eq\n      tag_147\n      jumpi\n        /* \"#utility.yul\":8973:8974   */\n      0x00\n        /* \"#utility.yul\":8990:8996   */\n      dup5\n        /* \"#utility.yul\":8987:9064   */\n      iszero\n      tag_148\n      jumpi\n        /* \"#utility.yul\":9039:9048   */\n      dup3\n        /* \"#utility.yul\":9034:9037   */\n      dup8\n        /* \"#utility.yul\":9030:9049   */\n      add\n        /* \"#utility.yul\":9024:9050   */\n      mload\n        /* \"#utility.yul\":9015:9050   */\n      swap1\n      pop\n        /* \"#utility.yul\":8987:9064   */\n    tag_148:\n        /* \"#utility.yul\":9090:9157   */\n      tag_149\n        /* \"#utility.yul\":9150:9156   */\n      dup6\n        /* \"#utility.yul\":9143:9148   */\n      dup3\n        /* \"#utility.yul\":9090:9157   */\n      tag_47\n      jump\t// in\n    tag_149:\n        /* \"#utility.yul\":9084:9088   */\n      dup7\n        /* \"#utility.yul\":9077:9158   */\n      sstore\n        /* \"#utility.yul\":8946:9168   */\n      pop\n        /* \"#utility.yul\":8281:9168   */\n      jump(tag_146)\n        /* \"#utility.yul\":8311:8929   */\n    tag_147:\n        /* \"#utility.yul\":8363:8367   */\n      0x1f\n        /* \"#utility.yul\":8359:8368   */\n      not\n        /* \"#utility.yul\":8351:8357   */\n      dup5\n        /* \"#utility.yul\":8347:8369   */\n      and\n        /* \"#utility.yul\":8397:8434   */\n      tag_150\n        /* \"#utility.yul\":8429:8433   */\n      dup7\n        /* \"#utility.yul\":8397:8434   */\n      tag_33\n      jump\t// in\n    tag_150:\n        /* \"#utility.yul\":8456:8457   */\n      0x00\n        /* \"#utility.yul\":8470:8678   */\n    tag_151:\n        /* \"#utility.yul\":8484:8491   */\n      dup3\n        /* \"#utility.yul\":8481:8482   */\n      dup2\n        /* \"#utility.yul\":8478:8492   */\n      lt\n        /* \"#utility.yul\":8470:8678   */\n      iszero\n      tag_153\n      jumpi\n        /* \"#utility.yul\":8563:8572   */\n      dup5\n        /* \"#utility.yul\":8558:8561   */\n      dup10\n        /* \"#utility.yul\":8554:8573   */\n      add\n        /* \"#utility.yul\":8548:8574   */\n      mload\n        /* \"#utility.yul\":8540:8546   */\n      dup3\n        /* \"#utility.yul\":8533:8575   */\n      sstore\n        /* \"#utility.yul\":8614:8615   */\n      0x01\n        /* \"#utility.yul\":8606:8612   */\n      dup3\n        /* \"#utility.yul\":8602:8616   */\n      add\n        /* \"#utility.yul\":8592:8616   */\n      swap2\n      pop\n        /* \"#utility.yul\":8661:8663   */\n      0x20\n        /* \"#utility.yul\":8650:8659   */\n      dup6\n        /* \"#utility.yul\":8646:8664   */\n      add\n        /* \"#utility.yul\":8633:8664   */\n      swap5\n      pop\n        /* \"#utility.yul\":8507:8511   */\n      0x20\n        /* \"#utility.yul\":8504:8505   */\n      dup2\n        /* \"#utility.yul\":8500:8512   */\n      add\n        /* \"#utility.yul\":8495:8512   */\n      swap1\n      pop\n        /* \"#utility.yul\":8470:8678   */\n      jump(tag_151)\n    tag_153:\n        /* \"#utility.yul\":8706:8712   */\n      dup7\n        /* \"#utility.yul\":8697:8704   */\n      dup4\n        /* \"#utility.yul\":8694:8713   */\n      lt\n        /* \"#utility.yul\":8691:8870   */\n      iszero\n      tag_154\n      jumpi\n        /* \"#utility.yul\":8764:8773   */\n      dup5\n        /* \"#utility.yul\":8759:8762   */\n      dup10\n        /* \"#utility.yul\":8755:8774   */\n      add\n        /* \"#utility.yul\":8749:8775   */\n      mload\n        /* \"#utility.yul\":8807:8855   */\n      tag_155\n        /* \"#utility.yul\":8849:8853   */\n      0x1f\n        /* \"#utility.yul\":8841:8847   */\n      dup10\n        /* \"#utility.yul\":8837:8854   */\n      and\n        /* \"#utility.yul\":8826:8835   */\n      dup3\n        /* \"#utility.yul\":8807:8855   */\n      tag_46\n      jump\t// in\n    tag_155:\n        /* \"#utility.yul\":8799:8805   */\n      dup4\n        /* \"#utility.yul\":8792:8856   */\n      sstore\n        /* \"#utility.yul\":8714:8870   */\n      pop\n        /* \"#utility.yul\":8691:8870   */\n    tag_154:\n        /* \"#utility.yul\":8916:8917   */\n      0x01\n        /* \"#utility.yul\":8912:8913   */\n      0x02\n        /* \"#utility.yul\":8904:8910   */\n      dup9\n        /* \"#utility.yul\":8900:8914   */\n      mul\n        /* \"#utility.yul\":8896:8918   */\n      add\n        /* \"#utility.yul\":8890:8894   */\n      dup9\n        /* \"#utility.yul\":8883:8919   */\n      sstore\n        /* \"#utility.yul\":8318:8929   */\n      pop\n      pop\n      pop\n        /* \"#utility.yul\":8281:9168   */\n    tag_146:\n      pop\n        /* \"#utility.yul\":7871:9174   */\n      pop\n      pop\n      pop\n        /* \"#utility.yul\":7779:9174   */\n      pop\n      pop\n      jump\t// out\n\n    auxdata: 0xa2646970667358221220846dab6d4cf54d920fd3b5f02a83b19389fac85190c1ed95c3dc78bb1b411f8064736f6c634300081e0033\n}\n",
				"bytecode": {
					"linkReferences": {},
					"object": "6080604052348015600e575f5ffd5b506106278061001c5f395ff3fe608060405234801561000f575f5ffd5b5060043610610029575f3560e01c80633e981f4b1461002d575b5f5ffd5b61004760048036038101906100429190610263565b610049565b005b5f604051806080016040528086815260200185815260200184815260200183815250908060018154018082558091505060019003905f5260205f2090600402015f909190919091505f820151815f0190816100a49190610522565b5060208201518160010190816100ba9190610522565b506040820151816002015560608201518160030190816100da9190610522565b50505050505050565b5f604051905090565b5f5ffd5b5f5ffd5b5f5ffd5b5f5ffd5b5f601f19601f8301169050919050565b7f4e487b71000000000000000000000000000000000000000000000000000000005f52604160045260245ffd5b610142826100fc565b810181811067ffffffffffffffff821117156101615761016061010c565b5b80604052505050565b5f6101736100e3565b905061017f8282610139565b919050565b5f67ffffffffffffffff82111561019e5761019d61010c565b5b6101a7826100fc565b9050602081019050919050565b828183375f83830152505050565b5f6101d46101cf84610184565b61016a565b9050828152602081018484840111156101f0576101ef6100f8565b5b6101fb8482856101b4565b509392505050565b5f82601f830112610217576102166100f4565b5b81356102278482602086016101c2565b91505092915050565b5f819050919050565b61024281610230565b811461024c575f5ffd5b50565b5f8135905061025d81610239565b92915050565b5f5f5f5f6080858703121561027b5761027a6100ec565b5b5f85013567ffffffffffffffff811115610298576102976100f0565b5b6102a487828801610203565b945050602085013567ffffffffffffffff8111156102c5576102c46100f0565b5b6102d187828801610203565b93505060406102e28782880161024f565b925050606085013567ffffffffffffffff811115610303576103026100f0565b5b61030f87828801610203565b91505092959194509250565b5f81519050919050565b7f4e487b71000000000000000000000000000000000000000000000000000000005f52602260045260245ffd5b5f600282049050600182168061036957607f821691505b60208210810361037c5761037b610325565b5b50919050565b5f819050815f5260205f209050919050565b5f6020601f8301049050919050565b5f82821b905092915050565b5f600883026103de7fffffffffffffffffffffffffffffffffffffffffffffffffffffffffffffffff826103a3565b6103e886836103a3565b95508019841693508086168417925050509392505050565b5f819050919050565b5f61042361041e61041984610230565b610400565b610230565b9050919050565b5f819050919050565b61043c83610409565b6104506104488261042a565b8484546103af565b825550505050565b5f5f905090565b610467610458565b610472818484610433565b505050565b5b818110156104955761048a5f8261045f565b600181019050610478565b5050565b601f8211156104da576104ab81610382565b6104b484610394565b810160208510156104c3578190505b6104d76104cf85610394565b830182610477565b50505b505050565b5f82821c905092915050565b5f6104fa5f19846008026104df565b1980831691505092915050565b5f61051283836104eb565b9150826002028217905092915050565b61052b8261031b565b67ffffffffffffffff8111156105445761054361010c565b5b61054e8254610352565b610559828285610499565b5f60209050601f83116001811461058a575f8415610578578287015190505b6105828582610507565b8655506105e9565b601f19841661059886610382565b5f5b828110156105bf5784890151825560018201915060208501945060208101905061059a565b868310156105dc57848901516105d8601f8916826104eb565b8355505b6001600288020188555050505b50505050505056fea2646970667358221220846dab6d4cf54d920fd3b5f02a83b19389fac85190c1ed95c3dc78bb1b411f8064736f6c634300081e0033",
					"opcodes": "PUSH1 0x80 PUSH1 0x40 MSTORE CALLVALUE DUP1 ISZERO PUSH1 0xE JUMPI PUSH0 PUSH0 REVERT JUMPDEST POP PUSH2 0x627 DUP1 PUSH2 0x1C PUSH0 CODECOPY PUSH0 RETURN INVALID PUSH1 0x80 PUSH1 0x40 MSTORE CALLVALUE DUP1 ISZERO PUSH2 0xF JUMPI PUSH0 PUSH0 REVERT JUMPDEST POP PUSH1 0x4 CALLDATASIZE LT PUSH2 0x29 JUMPI PUSH0 CALLDATALOAD PUSH1 0xE0 SHR DUP1 PUSH4 0x3E981F4B EQ PUSH2 0x2D JUMPI JUMPDEST PUSH0 PUSH0 REVERT JUMPDEST PUSH2 0x47 PUSH1 0x4 DUP1 CALLDATASIZE SUB DUP2 ADD SWAP1 PUSH2 0x42 SWAP2 SWAP1 PUSH2 0x263 JUMP JUMPDEST PUSH2 0x49 JUMP JUMPDEST STOP JUMPDEST PUSH0 PUSH1 0x40 MLOAD DUP1 PUSH1 0x80 ADD PUSH1 0x40 MSTORE DUP1 DUP7 DUP2 MSTORE PUSH1 0x20 ADD DUP6 DUP2 MSTORE PUSH1 0x20 ADD DUP5 DUP2 MSTORE PUSH1 0x20 ADD DUP4 DUP2 MSTORE POP SWAP1 DUP1 PUSH1 0x1 DUP2 SLOAD ADD DUP1 DUP3 SSTORE DUP1 SWAP2 POP POP PUSH1 0x1 SWAP1 SUB SWAP1 PUSH0 MSTORE PUSH1 0x20 PUSH0 KECCAK256 SWAP1 PUSH1 0x4 MUL ADD PUSH0 SWAP1 SWAP2 SWAP1 SWAP2 SWAP1 SWAP2 POP PUSH0 DUP3 ADD MLOAD DUP2 PUSH0 ADD SWAP1 DUP2 PUSH2 0xA4 SWAP2 SWAP1 PUSH2 0x522 JUMP JUMPDEST POP PUSH1 0x20 DUP3 ADD MLOAD DUP2 PUSH1 0x1 ADD SWAP1 DUP2 PUSH2 0xBA SWAP2 SWAP1 PUSH2 0x522 JUMP JUMPDEST POP PUSH1 0x40 DUP3 ADD MLOAD DUP2 PUSH1 0x2 ADD SSTORE PUSH1 0x60 DUP3 ADD MLOAD DUP2 PUSH1 0x3 ADD SWAP1 DUP2 PUSH2 0xDA SWAP2 SWAP1 PUSH2 0x522 JUMP JUMPDEST POP POP POP POP POP POP POP JUMP JUMPDEST PUSH0 PUSH1 0x40 MLOAD SWAP1 POP SWAP1 JUMP JUMPDEST PUSH0 PUSH0 REVERT JUMPDEST PUSH0 PUSH0 REVERT JUMPDEST PUSH0 PUSH0 REVERT JUMPDEST PUSH0 PUSH0 REVERT JUMPDEST PUSH0 PUSH1 0x1F NOT PUSH1 0x1F DUP4 ADD AND SWAP1 POP SWAP2 SWAP1 POP JUMP JUMPDEST PUSH32 0x4E487B7100000000000000000000000000000000000000000000000000000000 PUSH0 MSTORE PUSH1 0x41 PUSH1 0x4 MSTORE PUSH1 0x24 PUSH0 REVERT JUMPDEST PUSH2 0x142 DUP3 PUSH2 0xFC JUMP JUMPDEST DUP2 ADD DUP2 DUP2 LT PUSH8 0xFFFFFFFFFFFFFFFF DUP3 GT OR ISZERO PUSH2 0x161 JUMPI PUSH2 0x160 PUSH2 0x10C JUMP JUMPDEST JUMPDEST DUP1 PUSH1 0x40 MSTORE POP POP POP JUMP JUMPDEST PUSH0 PUSH2 0x173 PUSH2 0xE3 JUMP JUMPDEST SWAP1 POP PUSH2 0x17F DUP3 DUP3 PUSH2 0x139 JUMP JUMPDEST SWAP2 SWAP1 POP JUMP JUMPDEST PUSH0 PUSH8 0xFFFFFFFFFFFFFFFF DUP3 GT ISZERO PUSH2 0x19E JUMPI PUSH2 0x19D PUSH2 0x10C JUMP JUMPDEST JUMPDEST PUSH2 0x1A7 DUP3 PUSH2 0xFC JUMP JUMPDEST SWAP1 POP PUSH1 0x20 DUP2 ADD SWAP1 POP SWAP2 SWAP1 POP JUMP JUMPDEST DUP3 DUP2 DUP4 CALLDATACOPY PUSH0 DUP4 DUP4 ADD MSTORE POP POP POP JUMP JUMPDEST PUSH0 PUSH2 0x1D4 PUSH2 0x1CF DUP5 PUSH2 0x184 JUMP JUMPDEST PUSH2 0x16A JUMP JUMPDEST SWAP1 POP DUP3 DUP2 MSTORE PUSH1 0x20 DUP2 ADD DUP5 DUP5 DUP5 ADD GT ISZERO PUSH2 0x1F0 JUMPI PUSH2 0x1EF PUSH2 0xF8 JUMP JUMPDEST JUMPDEST PUSH2 0x1FB DUP5 DUP3 DUP6 PUSH2 0x1B4 JUMP JUMPDEST POP SWAP4 SWAP3 POP POP POP JUMP JUMPDEST PUSH0 DUP3 PUSH1 0x1F DUP4 ADD SLT PUSH2 0x217 JUMPI PUSH2 0x216 PUSH2 0xF4 JUMP JUMPDEST JUMPDEST DUP2 CALLDATALOAD PUSH2 0x227 DUP5 DUP3 PUSH1 0x20 DUP7 ADD PUSH2 0x1C2 JUMP JUMPDEST SWAP2 POP POP SWAP3 SWAP2 POP POP JUMP JUMPDEST PUSH0 DUP2 SWAP1 POP SWAP2 SWAP1 POP JUMP JUMPDEST PUSH2 0x242 DUP2 PUSH2 0x230 JUMP JUMPDEST DUP2 EQ PUSH2 0x24C JUMPI PUSH0 PUSH0 REVERT JUMPDEST POP JUMP JUMPDEST PUSH0 DUP2 CALLDATALOAD SWAP1 POP PUSH2 0x25D DUP2 PUSH2 0x239 JUMP JUMPDEST SWAP3 SWAP2 POP POP JUMP JUMPDEST PUSH0 PUSH0 PUSH0 PUSH0 PUSH1 0x80 DUP6 DUP8 SUB SLT ISZERO PUSH2 0x27B JUMPI PUSH2 0x27A PUSH2 0xEC JUMP JUMPDEST JUMPDEST PUSH0 DUP6 ADD CALLDATALOAD PUSH8 0xFFFFFFFFFFFFFFFF DUP2 GT ISZERO PUSH2 0x298 JUMPI PUSH2 0x297 PUSH2 0xF0 JUMP JUMPDEST JUMPDEST PUSH2 0x2A4 DUP8 DUP3 DUP9 ADD PUSH2 0x203 JUMP JUMPDEST SWAP5 POP POP PUSH1 0x20 DUP6 ADD CALLDATALOAD PUSH8 0xFFFFFFFFFFFFFFFF DUP2 GT ISZERO PUSH2 0x2C5 JUMPI PUSH2 0x2C4 PUSH2 0xF0 JUMP JUMPDEST JUMPDEST PUSH2 0x2D1 DUP8 DUP3 DUP9 ADD PUSH2 0x203 JUMP JUMPDEST SWAP4 POP POP PUSH1 0x40 PUSH2 0x2E2 DUP8 DUP3 DUP9 ADD PUSH2 0x24F JUMP JUMPDEST SWAP3 POP POP PUSH1 0x60 DUP6 ADD CALLDATALOAD PUSH8 0xFFFFFFFFFFFFFFFF DUP2 GT ISZERO PUSH2 0x303 JUMPI PUSH2 0x302 PUSH2 0xF0 JUMP JUMPDEST JUMPDEST PUSH2 0x30F DUP8 DUP3 DUP9 ADD PUSH2 0x203 JUMP JUMPDEST SWAP2 POP POP SWAP3 SWAP6 SWAP2 SWAP5 POP SWAP3 POP JUMP JUMPDEST PUSH0 DUP2 MLOAD SWAP1 POP SWAP2 SWAP1 POP JUMP JUMPDEST PUSH32 0x4E487B7100000000000000000000000000000000000000000000000000000000 PUSH0 MSTORE PUSH1 0x22 PUSH1 0x4 MSTORE PUSH1 0x24 PUSH0 REVERT JUMPDEST PUSH0 PUSH1 0x2 DUP3 DIV SWAP1 POP PUSH1 0x1 DUP3 AND DUP1 PUSH2 0x369 JUMPI PUSH1 0x7F DUP3 AND SWAP2 POP JUMPDEST PUSH1 0x20 DUP3 LT DUP2 SUB PUSH2 0x37C JUMPI PUSH2 0x37B PUSH2 0x325 JUMP JUMPDEST JUMPDEST POP SWAP2 SWAP1 POP JUMP JUMPDEST PUSH0 DUP2 SWAP1 POP DUP2 PUSH0 MSTORE PUSH1 0x20 PUSH0 KECCAK256 SWAP1 POP SWAP2 SWAP1 POP JUMP JUMPDEST PUSH0 PUSH1 0x20 PUSH1 0x1F DUP4 ADD DIV SWAP1 POP SWAP2 SWAP1 POP JUMP JUMPDEST PUSH0 DUP3 DUP3 SHL SWAP1 POP SWAP3 SWAP2 POP POP JUMP JUMPDEST PUSH0 PUSH1 0x8 DUP4 MUL PUSH2 0x3DE PUSH32 0xFFFFFFFFFFFFFFFFFFFFFFFFFFFFFFFFFFFFFFFFFFFFFFFFFFFFFFFFFFFFFFFF DUP3 PUSH2 0x3A3 JUMP JUMPDEST PUSH2 0x3E8 DUP7 DUP4 PUSH2 0x3A3 JUMP JUMPDEST SWAP6 POP DUP1 NOT DUP5 AND SWAP4 POP DUP1 DUP7 AND DUP5 OR SWAP3 POP POP POP SWAP4 SWAP3 POP POP POP JUMP JUMPDEST PUSH0 DUP2 SWAP1 POP SWAP2 SWAP1 POP JUMP JUMPDEST PUSH0 PUSH2 0x423 PUSH2 0x41E PUSH2 0x419 DUP5 PUSH2 0x230 JUMP JUMPDEST PUSH2 0x400 JUMP JUMPDEST PUSH2 0x230 JUMP JUMPDEST SWAP1 POP SWAP2 SWAP1 POP JUMP JUMPDEST PUSH0 DUP2 SWAP1 POP SWAP2 SWAP1 POP JUMP JUMPDEST PUSH2 0x43C DUP4 PUSH2 0x409 JUMP JUMPDEST PUSH2 0x450 PUSH2 0x448 DUP3 PUSH2 0x42A JUMP JUMPDEST DUP5 DUP5 SLOAD PUSH2 0x3AF JUMP JUMPDEST DUP3 SSTORE POP POP POP POP JUMP JUMPDEST PUSH0 PUSH0 SWAP1 POP SWAP1 JUMP JUMPDEST PUSH2 0x467 PUSH2 0x458 JUMP JUMPDEST PUSH2 0x472 DUP2 DUP5 DUP5 PUSH2 0x433 JUMP JUMPDEST POP POP POP JUMP JUMPDEST JUMPDEST DUP2 DUP2 LT ISZERO PUSH2 0x495 JUMPI PUSH2 0x48A PUSH0 DUP3 PUSH2 0x45F JUMP JUMPDEST PUSH1 0x1 DUP2 ADD SWAP1 POP PUSH2 0x478 JUMP JUMPDEST POP POP JUMP JUMPDEST PUSH1 0x1F DUP3 GT ISZERO PUSH2 0x4DA JUMPI PUSH2 0x4AB DUP2 PUSH2 0x382 JUMP JUMPDEST PUSH2 0x4B4 DUP5 PUSH2 0x394 JUMP JUMPDEST DUP2 ADD PUSH1 0x20 DUP6 LT ISZERO PUSH2 0x4C3 JUMPI DUP2 SWAP1 POP JUMPDEST PUSH2 0x4D7 PUSH2 0x4CF DUP6 PUSH2 0x394 JUMP JUMPDEST DUP4 ADD DUP3 PUSH2 0x477 JUMP JUMPDEST POP POP JUMPDEST POP POP POP JUMP JUMPDEST PUSH0 DUP3 DUP3 SHR SWAP1 POP SWAP3 SWAP2 POP POP JUMP JUMPDEST PUSH0 PUSH2 0x4FA PUSH0 NOT DUP5 PUSH1 0x8 MUL PUSH2 0x4DF JUMP JUMPDEST NOT DUP1 DUP4 AND SWAP2 POP POP SWAP3 SWAP2 POP POP JUMP JUMPDEST PUSH0 PUSH2 0x512 DUP4 DUP4 PUSH2 0x4EB JUMP JUMPDEST SWAP2 POP DUP3 PUSH1 0x2 MUL DUP3 OR SWAP1 POP SWAP3 SWAP2 POP POP JUMP JUMPDEST PUSH2 0x52B DUP3 PUSH2 0x31B JUMP JUMPDEST PUSH8 0xFFFFFFFFFFFFFFFF DUP2 GT ISZERO PUSH2 0x544 JUMPI PUSH2 0x543 PUSH2 0x10C JUMP JUMPDEST JUMPDEST PUSH2 0x54E DUP3 SLOAD PUSH2 0x352 JUMP JUMPDEST PUSH2 0x559 DUP3 DUP3 DUP6 PUSH2 0x499 JUMP JUMPDEST PUSH0 PUSH1 0x20 SWAP1 POP PUSH1 0x1F DUP4 GT PUSH1 0x1 DUP2 EQ PUSH2 0x58A JUMPI PUSH0 DUP5 ISZERO PUSH2 0x578 JUMPI DUP3 DUP8 ADD MLOAD SWAP1 POP JUMPDEST PUSH2 0x582 DUP6 DUP3 PUSH2 0x507 JUMP JUMPDEST DUP7 SSTORE POP PUSH2 0x5E9 JUMP JUMPDEST PUSH1 0x1F NOT DUP5 AND PUSH2 0x598 DUP7 PUSH2 0x382 JUMP JUMPDEST PUSH0 JUMPDEST DUP3 DUP2 LT ISZERO PUSH2 0x5BF JUMPI DUP5 DUP10 ADD MLOAD DUP3 SSTORE PUSH1 0x1 DUP3 ADD SWAP2 POP PUSH1 0x20 DUP6 ADD SWAP5 POP PUSH1 0x20 DUP2 ADD SWAP1 POP PUSH2 0x59A JUMP JUMPDEST DUP7 DUP4 LT ISZERO PUSH2 0x5DC JUMPI DUP5 DUP10 ADD MLOAD PUSH2 0x5D8 PUSH1 0x1F DUP10 AND DUP3 PUSH2 0x4EB JUMP JUMPDEST DUP4 SSTORE POP JUMPDEST PUSH1 0x1 PUSH1 0x2 DUP9 MUL ADD DUP9 SSTORE POP POP POP JUMPDEST POP POP POP POP POP POP JUMP INVALID LOG2 PUSH5 0x6970667358 0x22 SLT KECCAK256 DUP5 PUSH14 0xAB6D4CF54D920FD3B5F02A83B193 DUP10 STATICCALL 0xC8 MLOAD SWAP1 0xC1 0xED SWAP6 0xC3 0xDC PUSH25 0xBB1B411F8064736F6C634300081E0033000000000000000000 "
				},
				"gasEstimates": {
					"creation": {
						"codeDepositCost": "315000",
						"executionCost": "353",
						"totalCost": "315353"
					},
					"external": {
						"storeData(string,string,uint256,string)": "infinite"
					}
				},
				"methodIdentifiers": {
					"storeData(string,string,uint256,string)": "3e981f4b"
				}
			},
			"storageLayout": {
				"storage": [
					{
						"astId": 14,
						"contract": "contracts/tugas.sol:DataStore",
						"label": "person",
						"offset": 0,
						"slot": "0",
						"type": "t_array(t_struct(Person)10_storage)dyn_storage"
					}
				],
				"types": {
					"t_array(t_struct(Person)10_storage)dyn_storage": {
						"base": "t_struct(Person)10_storage",
						"encoding": "dynamic_array",
						"label": "struct DataStore.Person[]",
						"numberOfBytes": "32"
					},
					"t_string_storage": {
						"encoding": "bytes",
						"label": "string",
						"numberOfBytes": "32"
					},
					"t_struct(Person)10_storage": {
						"encoding": "inplace",
						"label": "struct DataStore.Person",
						"members": [
							{
								"astId": 3,
								"contract": "contracts/tugas.sol:DataStore",
								"label": "nama",
								"offset": 0,
								"slot": "0",
								"type": "t_string_storage"
							},
							{
								"astId": 5,
								"contract": "contracts/tugas.sol:DataStore",
								"label": "alamat",
								"offset": 0,
								"slot": "1",
								"type": "t_string_storage"
							},
							{
								"astId": 7,
								"contract": "contracts/tugas.sol:DataStore",
								"label": "tanggal_lahir",
								"offset": 0,
								"slot": "2",
								"type": "t_uint256"
							},
							{
								"astId": 9,
								"contract": "contracts/tugas.sol:DataStore",
								"label": "jenis_kelamin",
								"offset": 0,
								"slot": "3",
								"type": "t_string_storage"
							}
						],
						"numberOfBytes": "128"
					},
					"t_uint256": {
						"encoding": "inplace",
						"label": "uint256",
						"numberOfBytes": "32"
					}
				}
			},
			"userdoc": {
				"kind": "user",
				"methods": {},
				"version": 1
			}
		}
	}
}