{
	"data": {
		"bytecode": {
			"linkReferences": {},
			"object": "6080604052348015600e575f5ffd5b5061073c8061001c5f395ff3fe608060405234801561000f575f5ffd5b5060043610610055575f3560e01c806316b95176146100595780638381f58a146100755780638ae3048e14610093578063a50bbe1b146100af578063bef55ef3146100cd575b5f5ffd5b610073600480360381019061006e91906101e4565b6100eb565b005b61007d6100f4565b60405161008a919061021e565b60405180910390f35b6100ad60048036038101906100a89190610373565b6100f9565b005b6100b761010c565b6040516100c4919061041a565b60405180910390f35b6100d5610198565b6040516100e2919061021e565b60405180910390f35b805f8190555050565b5f5481565b80600190816101089190610637565b5050565b6001805461011990610467565b80601f016020809104026020016040519081016040528092919081815260200182805461014590610467565b80156101905780601f1061016757610100808354040283529160200191610190565b820191905f5260205f20905b81548152906001019060200180831161017357829003601f168201915b505050505081565b5f5f54905090565b5f604051905090565b5f5ffd5b5f5ffd5b5f819050919050565b6101c3816101b1565b81146101cd575f5ffd5b50565b5f813590506101de816101ba565b92915050565b5f602082840312156101f9576101f86101a9565b5b5f610206848285016101d0565b91505092915050565b610218816101b1565b82525050565b5f6020820190506102315f83018461020f565b92915050565b5f5ffd5b5f5ffd5b5f601f19601f8301169050919050565b7f4e487b71000000000000000000000000000000000000000000000000000000005f52604160045260245ffd5b6102858261023f565b810181811067ffffffffffffffff821117156102a4576102a361024f565b5b80604052505050565b5f6102b66101a0565b90506102c2828261027c565b919050565b5f67ffffffffffffffff8211156102e1576102e061024f565b5b6102ea8261023f565b9050602081019050919050565b828183375f83830152505050565b5f610317610312846102c7565b6102ad565b9050828152602081018484840111156103335761033261023b565b5b61033e8482856102f7565b509392505050565b5f82601f83011261035a57610359610237565b5b813561036a848260208601610305565b91505092915050565b5f60208284031215610388576103876101a9565b5b5f82013567ffffffffffffffff8111156103a5576103a46101ad565b5b6103b184828501610346565b91505092915050565b5f81519050919050565b5f82825260208201905092915050565b8281835e5f83830152505050565b5f6103ec826103ba565b6103f681856103c4565b93506104068185602086016103d4565b61040f8161023f565b840191505092915050565b5f6020820190508181035f83015261043281846103e2565b905092915050565b7f4e487b71000000000000000000000000000000000000000000000000000000005f52602260045260245ffd5b5f600282049050600182168061047e57607f821691505b6020821081036104915761049061043a565b5b50919050565b5f819050815f5260205f209050919050565b5f6020601f8301049050919050565b5f82821b905092915050565b5f600883026104f37fffffffffffffffffffffffffffffffffffffffffffffffffffffffffffffffff826104b8565b6104fd86836104b8565b95508019841693508086168417925050509392505050565b5f819050919050565b5f61053861053361052e846101b1565b610515565b6101b1565b9050919050565b5f819050919050565b6105518361051e565b61056561055d8261053f565b8484546104c4565b825550505050565b5f5f905090565b61057c61056d565b610587818484610548565b505050565b5b818110156105aa5761059f5f82610574565b60018101905061058d565b5050565b601f8211156105ef576105c081610497565b6105c9846104a9565b810160208510156105d8578190505b6105ec6105e4856104a9565b83018261058c565b50505b505050565b5f82821c905092915050565b5f61060f5f19846008026105f4565b1980831691505092915050565b5f6106278383610600565b9150826002028217905092915050565b610640826103ba565b67ffffffffffffffff8111156106595761065861024f565b5b6106638254610467565b61066e8282856105ae565b5f60209050601f83116001811461069f575f841561068d578287015190505b610697858261061c565b8655506106fe565b601f1984166106ad86610497565b5f5b828110156106d4578489015182556001820191506020850194506020810190506106af565b868310156106f157848901516106ed601f891682610600565b8355505b6001600288020188555050505b50505050505056fea264697066735822122024476ae9788bece7ee05260a42f1ee996db18250389cb1e6fcc1fcbcec5581a464736f6c634300081e0033",
			"opcodes": "PUSH1 0x80 PUSH1 0x40 MSTORE CALLVALUE DUP1 ISZERO PUSH1 0xE JUMPI PUSH0 PUSH0 REVERT JUMPDEST POP PUSH2 0x73C DUP1 PUSH2 0x1C PUSH0 CODECOPY PUSH0 RETURN INVALID PUSH1 0x80 PUSH1 0x40 MSTORE CALLVALUE DUP1 ISZERO PUSH2 0xF JUMPI PUSH0 PUSH0 REVERT JUMPDEST POP PUSH1 0x4 CALLDATASIZE LT PUSH2 0x55 JUMPI PUSH0 CALLDATALOAD PUSH1 0xE0 SHR DUP1 PUSH4 0x16B95176 EQ PUSH2 0x59 JUMPI DUP1 PUSH4 0x8381F58A EQ PUSH2 0x75 JUMPI DUP1 PUSH4 0x8AE3048E EQ PUSH2 0x93 JUMPI DUP1 PUSH4 0xA50BBE1B EQ PUSH2 0xAF JUMPI DUP1 PUSH4 0xBEF55EF3 EQ PUSH2 0xCD JUMPI JUMPDEST PUSH0 PUSH0 REVERT JUMPDEST PUSH2 0x73 PUSH1 0x4 DUP1 CALLDATASIZE SUB DUP2 ADD SWAP1 PUSH2 0x6E SWAP2 SWAP1 PUSH2 0x1E4 JUMP JUMPDEST PUSH2 0xEB JUMP JUMPDEST STOP JUMPDEST PUSH2 0x7D PUSH2 0xF4 JUMP JUMPDEST PUSH1 0x40 MLOAD PUSH2 0x8A SWAP2 SWAP1 PUSH2 0x21E JUMP JUMPDEST PUSH1 0x40 MLOAD DUP1 SWAP2 SUB SWAP1 RETURN JUMPDEST PUSH2 0xAD PUSH1 0x4 DUP1 CALLDATASIZE SUB DUP2 ADD SWAP1 PUSH2 0xA8 SWAP2 SWAP1 PUSH2 0x373 JUMP JUMPDEST PUSH2 0xF9 JUMP JUMPDEST STOP JUMPDEST PUSH2 0xB7 PUSH2 0x10C JUMP JUMPDEST PUSH1 0x40 MLOAD PUSH2 0xC4 SWAP2 SWAP1 PUSH2 0x41A JUMP JUMPDEST PUSH1 0x40 MLOAD DUP1 SWAP2 SUB SWAP1 RETURN JUMPDEST PUSH2 0xD5 PUSH2 0x198 JUMP JUMPDEST PUSH1 0x40 MLOAD PUSH2 0xE2 SWAP2 SWAP1 PUSH2 0x21E JUMP JUMPDEST PUSH1 0x40 MLOAD DUP1 SWAP2 SUB SWAP1 RETURN JUMPDEST DUP1 PUSH0 DUP2 SWAP1 SSTORE POP POP JUMP JUMPDEST PUSH0 SLOAD DUP2 JUMP JUMPDEST DUP1 PUSH1 0x1 SWAP1 DUP2 PUSH2 0x108 SWAP2 SWAP1 PUSH2 0x637 JUMP JUMPDEST POP POP JUMP JUMPDEST PUSH1 0x1 DUP1 SLOAD PUSH2 0x119 SWAP1 PUSH2 0x467 JUMP JUMPDEST DUP1 PUSH1 0x1F ADD PUSH1 0x20 DUP1 SWAP2 DIV MUL PUSH1 0x20 ADD PUSH1 0x40 MLOAD SWAP1 DUP2 ADD PUSH1 0x40 MSTORE DUP1 SWAP3 SWAP2 SWAP1 DUP2 DUP2 MSTORE PUSH1 0x20 ADD DUP3 DUP1 SLOAD PUSH2 0x145 SWAP1 PUSH2 0x467 JUMP JUMPDEST DUP1 ISZERO PUSH2 0x190 JUMPI DUP1 PUSH1 0x1F LT PUSH2 0x167 JUMPI PUSH2 0x100 DUP1 DUP4 SLOAD DIV MUL DUP4 MSTORE SWAP2 PUSH1 0x20 ADD SWAP2 PUSH2 0x190 JUMP JUMPDEST DUP3 ADD SWAP2 SWAP1 PUSH0 MSTORE PUSH1 0x20 PUSH0 KECCAK256 SWAP1 JUMPDEST DUP2 SLOAD DUP2 MSTORE SWAP1 PUSH1 0x1 ADD SWAP1 PUSH1 0x20 ADD DUP1 DUP4 GT PUSH2 0x173 JUMPI DUP3 SWAP1 SUB PUSH1 0x1F AND DUP3 ADD SWAP2 JUMPDEST POP POP POP POP POP DUP2 JUMP JUMPDEST PUSH0 PUSH0 SLOAD SWAP1 POP SWAP1 JUMP JUMPDEST PUSH0 PUSH1 0x40 MLOAD SWAP1 POP SWAP1 JUMP JUMPDEST PUSH0 PUSH0 REVERT JUMPDEST PUSH0 PUSH0 REVERT JUMPDEST PUSH0 DUP2 SWAP1 POP SWAP2 SWAP1 POP JUMP JUMPDEST PUSH2 0x1C3 DUP2 PUSH2 0x1B1 JUMP JUMPDEST DUP2 EQ PUSH2 0x1CD JUMPI PUSH0 PUSH0 REVERT JUMPDEST POP JUMP JUMPDEST PUSH0 DUP2 CALLDATALOAD SWAP1 POP PUSH2 0x1DE DUP2 PUSH2 0x1BA JUMP JUMPDEST SWAP3 SWAP2 POP POP JUMP JUMPDEST PUSH0 PUSH1 0x20 DUP3 DUP5 SUB SLT ISZERO PUSH2 0x1F9 JUMPI PUSH2 0x1F8 PUSH2 0x1A9 JUMP JUMPDEST JUMPDEST PUSH0 PUSH2 0x206 DUP5 DUP3 DUP6 ADD PUSH2 0x1D0 JUMP JUMPDEST SWAP2 POP POP SWAP3 SWAP2 POP POP JUMP JUMPDEST PUSH2 0x218 DUP2 PUSH2 0x1B1 JUMP JUMPDEST DUP3 MSTORE POP POP JUMP JUMPDEST PUSH0 PUSH1 0x20 DUP3 ADD SWAP1 POP PUSH2 0x231 PUSH0 DUP4 ADD DUP5 PUSH2 0x20F JUMP JUMPDEST SWAP3 SWAP2 POP POP JUMP JUMPDEST PUSH0 PUSH0 REVERT JUMPDEST PUSH0 PUSH0 REVERT JUMPDEST PUSH0 PUSH1 0x1F NOT PUSH1 0x1F DUP4 ADD AND SWAP1 POP SWAP2 SWAP1 POP JUMP JUMPDEST PUSH32 0x4E487B7100000000000000000000000000000000000000000000000000000000 PUSH0 MSTORE PUSH1 0x41 PUSH1 0x4 MSTORE PUSH1 0x24 PUSH0 REVERT JUMPDEST PUSH2 0x285 DUP3 PUSH2 0x23F JUMP JUMPDEST DUP2 ADD DUP2 DUP2 LT PUSH8 0xFFFFFFFFFFFFFFFF DUP3 GT OR ISZERO PUSH2 0x2A4 JUMPI PUSH2 0x2A3 PUSH2 0x24F JUMP JUMPDEST JUMPDEST DUP1 PUSH1 0x40 MSTORE POP POP POP JUMP JUMPDEST PUSH0 PUSH2 0x2B6 PUSH2 0x1A0 JUMP JUMPDEST SWAP1 POP PUSH2 0x2C2 DUP3 DUP3 PUSH2 0x27C JUMP JUMPDEST SWAP2 SWAP1 POP JUMP JUMPDEST PUSH0 PUSH8 0xFFFFFFFFFFFFFFFF DUP3 GT ISZERO PUSH2 0x2E1 JUMPI PUSH2 0x2E0 PUSH2 0x24F JUMP JUMPDEST JUMPDEST PUSH2 0x2EA DUP3 PUSH2 0x23F JUMP JUMPDEST SWAP1 POP PUSH1 0x20 DUP2 ADD SWAP1 POP SWAP2 SWAP1 POP JUMP JUMPDEST DUP3 DUP2 DUP4 CALLDATACOPY PUSH0 DUP4 DUP4 ADD MSTORE POP POP POP JUMP JUMPDEST PUSH0 PUSH2 0x317 PUSH2 0x312 DUP5 PUSH2 0x2C7 JUMP JUMPDEST PUSH2 0x2AD JUMP JUMPDEST SWAP1 POP DUP3 DUP2 MSTORE PUSH1 0x20 DUP2 ADD DUP5 DUP5 DUP5 ADD GT ISZERO PUSH2 0x333 JUMPI PUSH2 0x332 PUSH2 0x23B JUMP JUMPDEST JUMPDEST PUSH2 0x33E DUP5 DUP3 DUP6 PUSH2 0x2F7 JUMP JUMPDEST POP SWAP4 SWAP3 POP POP POP JUMP JUMPDEST PUSH0 DUP3 PUSH1 0x1F DUP4 ADD SLT PUSH2 0x35A JUMPI PUSH2 0x359 PUSH2 0x237 JUMP JUMPDEST JUMPDEST DUP2 CALLDATALOAD PUSH2 0x36A DUP5 DUP3 PUSH1 0x20 DUP7 ADD PUSH2 0x305 JUMP JUMPDEST SWAP2 POP POP SWAP3 SWAP2 POP POP JUMP JUMPDEST PUSH0 PUSH1 0x20 DUP3 DUP5 SUB SLT ISZERO PUSH2 0x388 JUMPI PUSH2 0x387 PUSH2 0x1A9 JUMP JUMPDEST JUMPDEST PUSH0 DUP3 ADD CALLDATALOAD PUSH8 0xFFFFFFFFFFFFFFFF DUP2 GT ISZERO PUSH2 0x3A5 JUMPI PUSH2 0x3A4 PUSH2 0x1AD JUMP JUMPDEST JUMPDEST PUSH2 0x3B1 DUP5 DUP3 DUP6 ADD PUSH2 0x346 JUMP JUMPDEST SWAP2 POP POP SWAP3 SWAP2 POP POP JUMP JUMPDEST PUSH0 DUP2 MLOAD SWAP1 POP SWAP2 SWAP1 POP JUMP JUMPDEST PUSH0 DUP3 DUP3 MSTORE PUSH1 0x20 DUP3 ADD SWAP1 POP SWAP3 SWAP2 POP POP JUMP JUMPDEST DUP3 DUP2 DUP4 MCOPY PUSH0 DUP4 DUP4 ADD MSTORE POP POP POP JUMP JUMPDEST PUSH0 PUSH2 0x3EC DUP3 PUSH2 0x3BA JUMP JUMPDEST PUSH2 0x3F6 DUP2 DUP6 PUSH2 0x3C4 JUMP JUMPDEST SWAP4 POP PUSH2 0x406 DUP2 DUP6 PUSH1 0x20 DUP7 ADD PUSH2 0x3D4 JUMP JUMPDEST PUSH2 0x40F DUP2 PUSH2 0x23F JUMP JUMPDEST DUP5 ADD SWAP2 POP POP SWAP3 SWAP2 POP POP JUMP JUMPDEST PUSH0 PUSH1 0x20 DUP3 ADD SWAP1 POP DUP2 DUP2 SUB PUSH0 DUP4 ADD MSTORE PUSH2 0x432 DUP2 DUP5 PUSH2 0x3E2 JUMP JUMPDEST SWAP1 POP SWAP3 SWAP2 POP POP JUMP JUMPDEST PUSH32 0x4E487B7100000000000000000000000000000000000000000000000000000000 PUSH0 MSTORE PUSH1 0x22 PUSH1 0x4 MSTORE PUSH1 0x24 PUSH0 REVERT JUMPDEST PUSH0 PUSH1 0x2 DUP3 DIV SWAP1 POP PUSH1 0x1 DUP3 AND DUP1 PUSH2 0x47E JUMPI PUSH1 0x7F DUP3 AND SWAP2 POP JUMPDEST PUSH1 0x20 DUP3 LT DUP2 SUB PUSH2 0x491 JUMPI PUSH2 0x490 PUSH2 0x43A JUMP JUMPDEST JUMPDEST POP SWAP2 SWAP1 POP JUMP JUMPDEST PUSH0 DUP2 SWAP1 POP DUP2 PUSH0 MSTORE PUSH1 0x20 PUSH0 KECCAK256 SWAP1 POP SWAP2 SWAP1 POP JUMP JUMPDEST PUSH0 PUSH1 0x20 PUSH1 0x1F DUP4 ADD DIV SWAP1 POP SWAP2 SWAP1 POP JUMP JUMPDEST PUSH0 DUP3 DUP3 SHL SWAP1 POP SWAP3 SWAP2 POP POP JUMP JUMPDEST PUSH0 PUSH1 0x8 DUP4 MUL PUSH2 0x4F3 PUSH32 0xFFFFFFFFFFFFFFFFFFFFFFFFFFFFFFFFFFFFFFFFFFFFFFFFFFFFFFFFFFFFFFFF DUP3 PUSH2 0x4B8 JUMP JUMPDEST PUSH2 0x4FD DUP7 DUP4 PUSH2 0x4B8 JUMP JUMPDEST SWAP6 POP DUP1 NOT DUP5 AND SWAP4 POP DUP1 DUP7 AND DUP5 OR SWAP3 POP POP POP SWAP4 SWAP3 POP POP POP JUMP JUMPDEST PUSH0 DUP2 SWAP1 POP SWAP2 SWAP1 POP JUMP JUMPDEST PUSH0 PUSH2 0x538 PUSH2 0x533 PUSH2 0x52E DUP5 PUSH2 0x1B1 JUMP JUMPDEST PUSH2 0x515 JUMP JUMPDEST PUSH2 0x1B1 JUMP JUMPDEST SWAP1 POP SWAP2 SWAP1 POP JUMP JUMPDEST PUSH0 DUP2 SWAP1 POP SWAP2 SWAP1 POP JUMP JUMPDEST PUSH2 0x551 DUP4 PUSH2 0x51E JUMP JUMPDEST PUSH2 0x565 PUSH2 0x55D DUP3 PUSH2 0x53F JUMP JUMPDEST DUP5 DUP5 SLOAD PUSH2 0x4C4 JUMP JUMPDEST DUP3 SSTORE POP POP POP POP JUMP JUMPDEST PUSH0 PUSH0 SWAP1 POP SWAP1 JUMP JUMPDEST PUSH2 0x57C PUSH2 0x56D JUMP JUMPDEST PUSH2 0x587 DUP2 DUP5 DUP5 PUSH2 0x548 JUMP JUMPDEST POP POP POP JUMP JUMPDEST JUMPDEST DUP2 DUP2 LT ISZERO PUSH2 0x5AA JUMPI PUSH2 0x59F PUSH0 DUP3 PUSH2 0x574 JUMP JUMPDEST PUSH1 0x1 DUP2 ADD SWAP1 POP PUSH2 0x58D JUMP JUMPDEST POP POP JUMP JUMPDEST PUSH1 0x1F DUP3 GT ISZERO PUSH2 0x5EF JUMPI PUSH2 0x5C0 DUP2 PUSH2 0x497 JUMP JUMPDEST PUSH2 0x5C9 DUP5 PUSH2 0x4A9 JUMP JUMPDEST DUP2 ADD PUSH1 0x20 DUP6 LT ISZERO PUSH2 0x5D8 JUMPI DUP2 SWAP1 POP JUMPDEST PUSH2 0x5EC PUSH2 0x5E4 DUP6 PUSH2 0x4A9 JUMP JUMPDEST DUP4 ADD DUP3 PUSH2 0x58C JUMP JUMPDEST POP POP JUMPDEST POP POP POP JUMP JUMPDEST PUSH0 DUP3 DUP3 SHR SWAP1 POP SWAP3 SWAP2 POP POP JUMP JUMPDEST PUSH0 PUSH2 0x60F PUSH0 NOT DUP5 PUSH1 0x8 MUL PUSH2 0x5F4 JUMP JUMPDEST NOT DUP1 DUP4 AND SWAP2 POP POP SWAP3 SWAP2 POP POP JUMP JUMPDEST PUSH0 PUSH2 0x627 DUP4 DUP4 PUSH2 0x600 JUMP JUMPDEST SWAP2 POP DUP3 PUSH1 0x2 MUL DUP3 OR SWAP1 POP SWAP3 SWAP2 POP POP JUMP JUMPDEST PUSH2 0x640 DUP3 PUSH2 0x3BA JUMP JUMPDEST PUSH8 0xFFFFFFFFFFFFFFFF DUP2 GT ISZERO PUSH2 0x659 JUMPI PUSH2 0x658 PUSH2 0x24F JUMP JUMPDEST JUMPDEST PUSH2 0x663 DUP3 SLOAD PUSH2 0x467 JUMP JUMPDEST PUSH2 0x66E DUP3 DUP3 DUP6 PUSH2 0x5AE JUMP JUMPDEST PUSH0 PUSH1 0x20 SWAP1 POP PUSH1 0x1F DUP4 GT PUSH1 0x1 DUP2 EQ PUSH2 0x69F JUMPI PUSH0 DUP5 ISZERO PUSH2 0x68D JUMPI DUP3 DUP8 ADD MLOAD SWAP1 POP JUMPDEST PUSH2 0x697 DUP6 DUP3 PUSH2 0x61C JUMP JUMPDEST DUP7 SSTORE POP PUSH2 0x6FE JUMP JUMPDEST PUSH1 0x1F NOT DUP5 AND PUSH2 0x6AD DUP7 PUSH2 0x497 JUMP JUMPDEST PUSH0 JUMPDEST DUP3 DUP2 LT ISZERO PUSH2 0x6D4 JUMPI DUP5 DUP10 ADD MLOAD DUP3 SSTORE PUSH1 0x1 DUP3 ADD SWAP2 POP PUSH1 0x20 DUP6 ADD SWAP5 POP PUSH1 0x20 DUP2 ADD SWAP1 POP PUSH2 0x6AF JUMP JUMPDEST DUP7 DUP4 LT ISZERO PUSH2 0x6F1 JUMPI DUP5 DUP10 ADD MLOAD PUSH2 0x6ED PUSH1 0x1F DUP10 AND DUP3 PUSH2 0x600 JUMP JUMPDEST DUP4 SSTORE POP JUMPDEST PUSH1 0x1 PUSH1 0x2 DUP9 MUL ADD DUP9 SSTORE POP POP POP JUMPDEST POP POP POP POP POP POP JUMP INVALID LOG2 PUSH5 0x6970667358 0x22 SLT KECCAK256 0x24 SELFBALANCE PUSH11 0xE9788BECE7EE05260A42F1 RETURNCONTRACT 0x99 PUSH14 0xB18250389CB1E6FCC1FCBCEC5581 LOG4 PUSH5 0x736F6C6343 STOP ADDMOD 0x1E STOP CALLER "
		},
		"gasEstimates": {
			"creation": {
				"codeDepositCost": "370400",
				"executionCost": "403",
				"totalCost": "370803"
			},
			"external": {
				"doSomething(string)": "infinite",
				"nama()": "infinite",
				"number()": "2424",
				"readData()": "2497",
				"storeData(uint256)": "22492"
			}
		},
		"methodIdentifiers": {
			"doSomething(string)": "8ae3048e",
			"nama()": "a50bbe1b",
			"number()": "8381f58a",
			"readData()": "bef55ef3",
			"storeData(uint256)": "16b95176"
		}
	},
	"abi": [
		{
			"inputs": [
				{
					"internalType": "string",
					"name": "_name",
					"type": "string"
				}
			],
			"name": "doSomething",
			"outputs": [],
			"stateMutability": "nonpayable",
			"type": "function"
		},
		{
			"inputs": [],
			"name": "nama",
			"outputs": [
				{
					"internalType": "string",
					"name": "",
					"type": "string"
				}
			],
			"stateMutability": "view",
			"type": "function"
		},
		{
			"inputs": [],
			"name": "number",
			"outputs": [
				{
					"internalType": "uint256",
					"name": "",
					"type": "uint256"
				}
			],
			"stateMutability": "view",
			"type": "function"
		},
		{
			"inputs": [],
			"name": "readData",
			"outputs": [
				{
					"internalType": "uint256",
					"name": "",
					"type": "uint256"
				}
			],
			"stateMutability": "view",
			"type": "function"
		},
		{
			"inputs": [
				{
					"internalType": "uint256",
					"name": "_value",
					"type": "uint256"
				}
			],
			"name": "storeData",
			"outputs": [],
			"stateMutability": "nonpayable",
			"type": "function"
		}
	]
}